{
  "contractName": "Vote",
  "abi": [
    {
      "constant": true,
      "inputs": [
        {
          "name": "",
          "type": "uint256"
        }
      ],
      "name": "restaurant",
      "outputs": [
        {
          "name": "id",
          "type": "uint256"
        },
        {
          "name": "name",
          "type": "string"
        },
        {
          "name": "voteCount",
          "type": "uint256"
        }
      ],
      "payable": false,
      "stateMutability": "view",
      "type": "function"
    },
    {
      "constant": true,
      "inputs": [],
      "name": "restaurantCount",
      "outputs": [
        {
          "name": "",
          "type": "uint256"
        }
      ],
      "payable": false,
      "stateMutability": "view",
      "type": "function"
    },
    {
      "constant": false,
      "inputs": [],
      "name": "VoteFunc",
      "outputs": [],
      "payable": false,
      "stateMutability": "nonpayable",
      "type": "function"
    }
  ],
  "bytecode": "0x608060405234801561001057600080fd5b5061049f806100206000396000f300608060405260043610610057576000357c0100000000000000000000000000000000000000000000000000000000900463ffffffff16806319bedf2c1461005c5780638270e56614610073578063b11b91e614610127575b600080fd5b34801561006857600080fd5b50610071610152565b005b34801561007f57600080fd5b5061009e6004803603810190808035906020019092919050505061028a565b6040518084815260200180602001838152602001828103825284818151815260200191508051906020019080838360005b838110156100ea5780820151818401526020810190506100cf565b50505050905090810190601f1680156101175780820380516001836020036101000a031916815260200191505b5094505050505060405180910390f35b34801561013357600080fd5b5061013c61034c565b6040518082815260200191505060405180910390f35b6101906040805190810160405280600c81526020017f52657374617572616e7420310000000000000000000000000000000000000000815250610352565b6101ce6040805190810160405280600c81526020017f52657374617572616e7420320000000000000000000000000000000000000000815250610352565b61020c6040805190810160405280600c81526020017f52657374617572616e7420330000000000000000000000000000000000000000815250610352565b61024a6040805190810160405280600c81526020017f52657374617572616e7420340000000000000000000000000000000000000000815250610352565b6102886040805190810160405280600c81526020017f52657374617572616e7420350000000000000000000000000000000000000000815250610352565b565b6000602052806000526040600020600091509050806000015490806001018054600181600116156101000203166002900480601f01602080910402602001604051908101604052809291908181526020018280546001816001161561010002031660029004801561033c5780601f106103115761010080835404028352916020019161033c565b820191906000526020600020905b81548152906001019060200180831161031f57829003601f168201915b5050505050908060020154905083565b60015481565b6001600081548092919060010191905055506060604051908101604052806001548152602001828152602001600081525060008060015481526020019081526020016000206000820151816000015560208201518160010190805190602001906103bd9291906103ce565b506040820151816002015590505050565b828054600181600116156101000203166002900490600052602060002090601f016020900481019282601f1061040f57805160ff191683800117855561043d565b8280016001018555821561043d579182015b8281111561043c578251825591602001919060010190610421565b5b50905061044a919061044e565b5090565b61047091905b8082111561046c576000816000905550600101610454565b5090565b905600a165627a7a72305820e6273267e84bb473124ff413c62c6e34f15070cc3323dab10f0061e454114cb50029",
  "source": "pragma solidity ^0.4.24;\n\ncontract Vote {\n    \n    // Restaurant Object\n    struct Restaurant {\n        uint id;\n        string name;\n        uint voteCount;\n    }\n\n    // Store Data\n\n\n    // Fetch Data\n    mapping(uint => Restaurant) public restaurant;\n\n    // Number of restaurant\n    uint public restaurantCount;\n\n\n    function VoteFunc () public{\n        addRestaurant(\"Restaurant 1\");\n        addRestaurant(\"Restaurant 2\");\n        addRestaurant(\"Restaurant 3\");\n        addRestaurant(\"Restaurant 4\");\n        addRestaurant(\"Restaurant 5\");\n        \n    }\n\n    function addRestaurant (string memory _name) private {\n        restaurantCount++;\n        restaurant[restaurantCount] = Restaurant(restaurantCount, _name, 0);\n    }\n}",
  "sourcePath": "/Users/chanchunhin/Documents/Coding/dapp/vote/contracts/Vote.sol",
  "compiler": {
    "name": "solc",
    "version": "0.4.24+commit.e67f0147.Emscripten.clang"
  },
  "schemaVersion": "2.0.1",
  "updatedAt": "2018-12-17T14:47:37.854Z"
}